:020000040800F2
:10000000C8080020810200081D6600081F6600085D
:1000100023660008276600082B6600080000000021
:100020000000000000000000000000002F66000833
:1000300031660008000000003366000835660008DD
:100040009B0200089B0200089B0200089B0200081C
:100050009B0200089B0200089B0200089B0200080C
:100060009B0200089B0200089B0200089B020008FC
:100070009B0200089B0200089B0200089B020008EC
:100080009B0200089B0200089B0200089B020008DC
:100090009B0200089B0200089B0200089B020008CC
:1000A0009B0200089B0200089B0200089B020008BC
:1000B000B5240008432400089B0200089B020008A6
:1000C0009B0200089B0200089B0200089B0200089C
:1000D0009B020008C5230008792F00089B02000836
:1000E0009B0200089B0200089B0200089B0200087C
:1000F0009B0200089B0200089B0200089B0200086C
:100100009B0200089B0200089B0200089B0200085B
:100110009B0200089B0200089B0200089B0200084B
:100120009B0200089B0200089B0200089B0200083B
:1001300000F002F800F094F80AA090E8000C824465
:100140008344AAF10107DA4501D100F089F8AFF242
:10015000090EBAE80F0013F0010F18BFFB1A43F0A5
:1001600001031847B0AB0000D0AB0000103A24BF29
:1001700078C878C1FAD8520724BF30C830C144BF0C
:1001800004680C607047000000230024002500264E
:10019000103A28BF78C1FBD8520728BF30C148BFEA
:1001A0000B6070476E2906F0D187702906F09384A2
:1001B00066290AF0588065290AF0558067290AF0F7
:1001C00052806129AFF3008003681B0A28BF41F009
:1001D0008001692906F00484642906F001847529E8
:1001E00006F0FE836F2907F0CE82782906F05F843F
:1001F000E92907F06982E42907F06682F52907F00A
:100200006382EF2907F0CB82F82906F05E84036849
:10021000DB0928BF41F08001632907F0EA817329D7
:1002200007F0EF81E32907F0AF83F32907F0B483E8
:10023000002070471FB59DE8030006F0DBFE07F0C5
:10024000F5FA04000020002108F03EFF401C606029
:100250000020002108F04EFFE0601FBD10B510BD6A
:1002600007F088FC1146FFF7E5FF06F0AFF807F04E
:10027000B4FC03B4FFF7F2FF03BC07F025FD000058
:100280000948804709480047FEE7FEE7FEE7FEE72A
:10029000FEE7FEE7FEE7FEE7FEE7FEE70448054966
:1002A000054A064B70470000176700083101000837
:1002B000C8020020C8080020C8040020C80400208C
:1002C00010B50446CC48844208D10121042000F036
:1002D0002DFB0021042000F029FB46E0C7488442A2
:1002E00008D10121082000F021FB0021082000F0A6
:1002F0001DFB3AE0C248844208D10121102000F0E1
:1003000015FB0021102000F011FB2EE0BD488442B7
:1003100008D10121202000F009FB0021202000F05D
:1003200005FB22E0B848844208D10121402000F0BA
:10033000FDFA0021402000F0F9FA16E0B3488442AB
:1003400008D10121802000F0F1FA0021802000F086
:10035000EDFA0AE0AE48844207D10121801500F091
:10036000E5FA0021A01500F0E1FA10BD10B5012159
:10037000084600F0DBFA0021012000F0D7FA10BD9A
:100380002DE9F0410246002500260020002300242C
:10039000002791F803C00CF00F0591F803C00CF092
:1003A000100CBCF1000F03D091F802C04CEA050517
:1003B00091F800C0BCF1000F31D0146800202BE090
:1003C0004FF0010C0CFA00F3B1F800C00CEA030680
:1003D0009E4220D183004FF00F0C0CFA03F7BC4370
:1003E00005FA03FC4CEA040491F803C0BCF1280FA1
:1003F00006D14FF0010C0CFA00FCC2F814C00AE060
:1004000091F803C0BCF1480F05D14FF0010C0CFA74
:1004100000FCC2F810C0401C0828D1D31460B1F809
:1004200000C0BCF1FF0F34DD546800202EE000F165
:10043000080C4FF0010808FA0CF3B1F800C00CEA00
:1004400003069E4221D183004FF00F0C0CFA03F7F4
:10045000BC4305FA03FC4CEA040491F803C0BCF168
:10046000280F05D100F1080C08FA0CF8C2F8148026
:1004700091F803C0BCF1480F07D100F1080C4FF010
:10048000010808FA0CF8C2F81080401C0828CED3E6
:100490005460BDE8F0814FF6FF7101800221817048
:1004A0000421C17070470246002093680B400BB1D5
:1004B000012000E0002070470146886880B2704744
:1004C00002460020D3680B400BB1012000E0002061
:1004D00070470146C86880B270470161704741614A
:1004E00070470AB1016100E041617047C160704727
:1004F0004FF480320A43826181618261826982693C
:10050000704702460020434B18684FF6807318402E
:1005100040EA021008433F4B186070473E49C861EB
:100520007047F0B50A46002300240021002500F0A2
:100530000046B6F1004F02D1364EF16901E0354E6A
:100540007168C0F3034583B200F44016B6F5401F4E
:1005500008D121F070612F4E766826F070662D4F1D
:100560007E6012E000F48016B6F5801F06D10326E7
:1005700006FA05F4A14341F0706106E0460D36012C
:1005800003FA06F6B14341F0706122B1460D36011F
:1005900003FA06F6314300F00046B6F1004F02D1EF
:1005A0001C4EF16101E01B4E7160F0BD30B50022C0
:1005B0008B071C0F0F2303FA04F2164B08338C1021
:1005C00053F824309343134C08348D1044F82530ED
:1005D00023468C1053F824308C07240F00FA04F4BF
:1005E00023430C4C08348D1044F8253030BD0A49A3
:1005F000DC3108607047000000080140000C014039
:10060000001001400014014000180140001C01408E
:10061000002001400000014000002042DF48006847
:1006200040F00100DD49086008464068DC490840A8
:10063000DA49486008460068DA490840D749086046
:100640000846006820F4802008600846406820F4CE
:10065000FE0048604FF41F0088607047CF4909686A
:1006600021F48031CD4A11601146096821F48021BE
:100670001160B0F5803F03D0B0F5802F0ED106E0B9
:10068000C649096841F48031C44A116007E0C34992
:10069000096841F4A021C14A116000E000BF00BF19
:1006A000704710B501460022002300204A11012A9C
:1006B00002D1BA4C236806E0022A02D1B74C236A61
:1006C00001E0B64C636A01F01F02012494401C4013
:1006D0000CB1012000E0002010BD38B500200090D2
:1006E0000024002500BF3120FFF7DBFF05460098FE
:1006F000401C00900098B0F5A06F01D0002DF2D002
:100700003120FFF7CEFF08B1012400E0002420468D
:1007100038BD01460020A14A106820F0F80040EAE8
:10072000C10010607047A049086070470246002071
:100730009A4B586820F47C1042EA01031843974B07
:100740005860704798490866704701460020934AF0
:10075000506820F003000843506070478F4840689D
:1007600000F00C007047014600208C4A506820F0D1
:10077000F00008435060704701460020874A5068E7
:1007800020F4E06008435060704701460020834A2F
:10079000506820F4605040EAC1005060704729B1B1
:1007A0007E4A527A02437D4B5A7204E07B4A527A67
:1007B00082437A4B5A7270477B49D8310860704740
:1007C00001460020754A506820F4404008435060BC
:1007D00070470021714A20321170704A82F820104F
:1007E000012802D004280AD104E001216B4A2032FA
:1007F000117005E00521694A2032117000E000BF48
:1008000000BF70476949086070476449096A01433D
:10081000624A11627047654944390860704730B5D3
:1008200000210022002400235C4D6D6805F00C01BE
:1008300021B1042905D0082923D105E05C4D0560CC
:1008400022E05B4D05601FE0544D6D6805F47012A9
:10085000524D6D6805F48034022505EB92421CB9B7
:10086000544D554305600BE04C4D6D6805F4003563
:100870001DB1504D5543056002E04D4D5543056097
:1008800002E04B4D056000BF00BF444D6D6805F0B0
:10089000F0010909484D6B5C0568DD4045603F4D3E
:1008A0006D6805F4E061090A434D6B5C4568DD4005
:1008B00085603A4D6D6805F46051C90A3E4D6B5C28
:1008C0004568DD40C560354D6D6805F44041890BD4
:1008D0003A4D6B5CC568B5FBF3F5056130BD29B1D8
:1008E0002E4A526902432D4B5A6104E02B4A526949
:1008F00082432A4B5A61704729B1284A92690243C0
:10090000264B9A6104E0254A92698243234B9A61FF
:10091000704729B1214AD2690243204BDA6104E0D1
:100920001E4AD26982431D4BDA61704729B11B4AC6
:10093000D2680243194BDA6004E0184AD268824355
:10094000164BDA60704729B1144A12690243134BFF
:100950001A6104E0114A12698243104B1A61704710
:1009600012494039086070470F49C86470470B4905
:10097000C87170470948406A40F080700749486272
:10098000704701460020054A92680A400AB10120DA
:1009900000E0002070470149887270470010024053
:1009A0000000FFF8FFFFF6FE0000424280044242D2
:1009B00000127A0000093D00000000201000002015
:1009C00010B50446FB48844209D101218803FFF792
:1009D000ADFF00214FF48040FFF7A8FF32E0F6485A
:1009E000844209D101214804FFF7ADFF00214FF4F3
:1009F0000030FFF7A8FF25E0F048844209D101212B
:100A00008804FFF7A0FF00214FF48020FFF79BFF31
:100A100018E0EB48844209D10121C804FFF793FF95
:100A200000214FF40020FFF78EFF0BE0E5488442E1
:100A300008D101210805FFF786FF00214FF480103F
:100A4000FFF781FF10BD2DE9F04786B005460E4641
:100A50000024A24600BFA1460027B08900B100BF14
:100A60002F462C8A4CF6FF700440F08804432C82F9
:100A7000AC894EF6F3100440B0883189084371897F
:100A800008430443AC81AC8A4FF6FF400440B08970
:100A90000443AC8201A8FFF7C2FEC648874202D1D8
:100AA000DDF810A001E0DDF80CA0A88900F40040FA
:100AB00040B10AEBCA0000EB0A1031684900B0FBF4
:100AC000F1F807E00AEBCA0000EB0A103168890070
:100AD000B0FBF1F86420B8FBF0F0040120096421B8
:100AE00001FB1089A88900F4004040B1322000EBDE
:100AF000C900B0FBF1F000F00700044308E0322029
:100B000000EB09106421B0FBF1F000F00F0004438A
:100B10002C8106B0BDE8F0874FF41651016000212A
:100B20008180C18001810C21418100218181704738
:100B300010B502460020108A4FF2FF0318400B88C0
:100B40004C8823438C882343CC882343184310824A
:100B500010BD0021018041808180C180704721B19A
:100B6000828942F40052828104E082894DF6FF734B
:100B70001A4082817047F0B5034600240026002504
:100B8000002040F66A17B94200D100BF1846C1F3F1
:100B9000421401F01F06012707FA06F5012C01D1C6
:100BA0000C3004E0022C01D1103000E014301AB1F6
:100BB00007682F43076002E00768AF430760F0BD96
:100BC0001AB1838A0B43838202E0838A8B43838238
:100BD0007047028A4FF6F0731A400282028A0A4373
:100BE0000282704782894FF2FF731A4082818289A4
:100BF0000A438281704721B1828942F002028281D8
:100C000004E082894FF6FD731A4082817047028AA0
:100C10004FF6DF731A400282028A0A43028270474B
:100C200021B1028A42F48042028204E0028A4BF639
:100C3000FF731A4002827047C1F308028280704736
:100C400001468888C0F308007047818941F001019E
:100C500081817047028BD2B20283028B42EA012269
:100C600002837047028B02F47F420283028B0A43A5
:100C70000283704721B1828A42F02002828204E01E
:100C8000828A4FF6DF731A408282704721B1828ACE
:100C900042F01002828204E0828A4FF6EF731A401B
:100CA0008282704721B1828A42F00802828204E087
:100CB000828A4FF6F7731A408282704721B1828987
:100CC00042F40042828103E08289C2F30E028281F3
:100CD000704721B1828A42F40062828204E0828AF3
:100CE0004FF2FF731A4082827047828A4FF6FB737D
:100CF0001A408282828A0A438282704721B1828AA4
:100D000042F00202828204E0828A4FF6FD731A40AA
:100D10008282704702460020B1F5007F00D100BFFB
:100D200013880B400BB1012000E00020704701F454
:100D30000072B2F5007F00D100BFCA430280704745
:100D400070B50246002400230025002040F66A16F4
:100D5000B14200D100BFC1F3421501F01F030126CB
:100D600006FA03F3012D02D19689334006E0022DE5
:100D700002D1168A334001E0968A33400C120126D4
:100D800006FA04F41688344013B10CB1012000E0D7
:100D9000002070BD10B50022002340F66A14A14265
:100DA00000D100BF0A1201249440A3B2DC430480A6
:100DB00010BD0000003801400044004000480040E1
:100DC000004C00400050004010B50446FA488442F0
:100DD00008D101214015FFF7A9FD00216015FFF79B
:100DE000A5FD17E0F548844208D101210015FFF761
:100DF0009DFD00212015FFF799FD0BE0F04884428E
:100E000008D10121C803FFF791FD00214FF40040F4
:100E1000FFF78CFD10BD30B502460020002350685E
:100E2000E84C20400D790C6844EA052420435060CA
:100E30009068E54C2040D1E902542C434D7944EAB6
:100E4000450420439060D06A20F470000C7C641E3E
:100E5000E4B2234340EA0350D06230BD0021016078
:100E6000017141718160C16001210174704721B13C
:100E7000826842F00102826003E0826822F001028F
:100E80008260704721B1826842F48072826003E020
:100E9000826822F480728260704710B50023CBB262
:100EA0001AB144681C43446002E044689C434460B7
:100EB00010BD816841F00801816070470146002043
:100EC0008A6802F008020AB1012000E000207047A1
:100ED000816841F0040181607047014600208A6802
:100EE00002F004020AB1012000E00020704721B1A5
:100EF000826842F4A002826003E0826822F4A002C9
:100F000082607047014600208A6802F480020AB1BC
:100F1000012000E00020704710B50A4600210023A0
:100F2000416821F46041531E41EA4331416010BDE4
:100F300021B1426842F40062426003E0426822F458
:100F4000006242607047F0B504460D460020002163
:100F5000092D11DDE068A5F10A0606EB4607072614
:100F600006FA07F18843A5F10A0606EB460603FADE
:100F700006F10843E0600CE0206905EB4507072611
:100F800006FA07F1884305EB450603FA06F1084324
:100F90002061072A0FDA606B561E06EB86071F26B4
:100FA00006FA07F18843561E06EB860605FA06F197
:100FB0000843606322E00D2A0FDA206BD61F06EB90
:100FC00086071F2606FA07F18843D61F06EB86061A
:100FD00005FA06F10843206310E0E06AA2F10D066D
:100FE00006EB86071F2606FA07F18843A2F10D06D5
:100FF00006EB860605FA06F10843E062F0BD21B172
:10100000826842F48012826003E0826822F48012D7
:10101000826070470146C86C80B2704766484C30A9
:101020000068704721B1426842F48062426003E088
:10103000426822F480624260704721B1426842F403
:101040008052426003E0426822F48052426070475E
:101050000A460021816821F4E04111438160704714
:1010600021B1826842F40042826003E0826822F487
:1010700000428260704721B1826842F402128260AD
:1010800003E0826822F40212826070470146002069
:101090008A6802F400120AB1012000E000207047C3
:1010A000F0B504461546002000220026092911DD6E
:1010B000E068A1F10A0707EB470C072707FA0CF2D3
:1010C0009043A1F10A0707EB470703FA07F2104321
:1010D000E0600CE0206901EB410C072707FA0CF2F5
:1010E000904301EB410703FA07F210432061A06B24
:1010F000C0F30156EF1C06F1010CA7EB0C0707EB40
:10110000870C1F2707FA0CF29043EF1C06F1010C25
:10111000A7EB0C0707EB870701FA07F21043A06360
:10112000F0BD10B50A4600210023816B21F4401167
:10113000531E41EA0351816310BD08B5002300939B
:101140000090009B0B440093009B1A6008BD08B5FB
:10115000024600200090009201F12800009B1844F4
:1011600000900098006880B208BD0A4600214168DE
:10117000164B1940114341607047416282627047CB
:101180000A460021416821F01F0111434160704768
:1011900040B109490831096841F40001064A0832A2
:1011A000116007E004490831096821F40001024A8E
:1011B00008321160704700000024014000280140FF
:1011C000003C0140FFFEF0FFFDF7F1FFFFFD3FFF98
:1011D0000246002013680B400BB1012000E0002004
:1011E0007047CA430260704770B502460020002372
:1011F00000240B125568CEB205EA060415681D409E
:1012000015B10CB1012000E0002070BD00220A12CF
:10121000D34303607047000031490143314A1160F4
:10122000704770B5002100230F22C47804B32D4C01
:10123000246804F4E064C4F5E064210AC1F1040305
:10124000CA40447804FA03F1847814402143090128
:10125000254C0678A155047804F01F050124AC4004
:1012600005786D11AD0005F1E025C5F8004109E0F4
:10127000047804F01F050124AC401C4D067876115B
:1012800045F8264070BD1A4A0A400243154B1B1F01
:101290001A60704739B1134A121D12680243114B8C
:1012A0001B1D1A6006E00F4A121D126882430D4B87
:1012B0001B1D1A607047042808D14FF0E02109690E
:1012C00041F004014FF0E022116107E04FF0E0210E
:1012D000096921F004014FF0E0221161704700001C
:1012E0000000FA050CED00E000E400E080E100E021
:1012F00080FFFF1F10B50446FE48844208D101213B
:10130000C014FFF713FB0021E014FFF70FFBC4E04C
:10131000B4F1804F08D101210846FFF714FB0021EA
:101320000120FFF710FBB8E0F348844208D1012107
:101330000220FFF708FB00210220FFF704FBACE0CE
:10134000EE48844208D101210420FFF7FCFA002175
:101350000420FFF7F8FAA0E0E948844208D101210F
:101360000820FFF7F0FA00210820FFF7ECFA94E0DC
:10137000E448844208D101211020FFF7E4FA00215B
:101380001020FFF7E0FA88E0DF48844208D101210D
:101390002020FFF7D8FA00212020FFF7D4FA7CE0C4
:1013A000DA48844208D101214014FFF7BFFA002136
:1013B0006014FFF7BBFA70E0D548844209D10121DF
:1013C000C804FFF7B3FA00214FF40020FFF7AEFA8C
:1013D00063E0D048844209D101210805FFF7A6FA4D
:1013E00000214FF48010FFF7A1FA56E0CA4884426A
:1013F00009D101214805FFF799FA00214FF40010A7
:10140000FFF794FA49E0C548844208D10121402001
:10141000FFF799FA00214020FFF795FA3DE0C04818
:10142000844208D101218020FFF78DFA002180201D
:10143000FFF789FA31E0BB48844208D101218015C9
:10144000FFF781FA0021A015FFF77DFA25E0B648E5
:10145000844209D101210804FFF768FA00214FF402
:101460008030FFF763FA18E0B048844209D10121C7
:101470004804FFF75BFA00214FF40030FFF756FAFB
:101480000BE0AB48844208D101218804FFF74EFAF3
:1014900000214FF48020FFF749FA10BD0022028896
:1014A000944B98420ED0994B98420BD0B0F1804F9C
:1014B00008D0914B984205D0904B984202D0904B67
:1014C000984204D14FF68F731A404B881A438D4BC4
:1014D000984207D08C4B984204D04FF6FF431A40F5
:1014E000CB881A4302808B8883850B880385814BC8
:1014F00098420BD0854B984208D08B4B984205D030
:101500008A4B984202D08A4B984201D10B7A0386CB
:1015100001238382704770B5002400220023058CCC
:101520004FF6FE7635400584028C8388048B4FF697
:101530008F752C40B51E2C400D882C43751E2A40FB
:101540000D892A434D882A436A4DA8420BD06F4D1E
:10155000A84208D0744DA84205D0744DA84202D0CC
:10156000734DA84213D14FF6F7752A404D892A438F
:101570004FF6FB752A408D882A434FF6FF652B40B6
:101580004FF6FF552B408D892B43CD892B4383800C
:101590000483CD888586028470BD70B50024002246
:1015A0000023058C4FF6EF7635400584028C838846
:1015B000048B48F6FF752C404FF6FF452C400D88F4
:1015C0004FF6FF7606EA05252C434FF6DF752A40D5
:1015D0000D8906EA05152A434D8806EA05152A43B2
:1015E000444DA84202D0494DA8421DD14FF67F7507
:1015F0002A404D894FF6FF7606EA05152A434FF635
:10160000BF752A408D8806EA05152A434FF6FF3537
:101610002B404FF2FF752B408D8906EA85052B4341
:10162000CD8906EA85052B4383800483CD88058711
:10163000028470BD70B5002400220023058C4FF693
:10164000FF6635400584028C8388848B4FF68F7546
:101650002C404FF6FC752C400D882C434FF6FF555F
:101660002A400D894FF6FF7606EA05252A434D8864
:1016700006EA05252A431F4DA84202D0234DA84261
:101680001DD14FF2FF752A404D894FF6FF7606EACD
:1016900005252A434FF6FF352A408D8806EA0525A1
:1016A0002A434EF6FF752B404DF6FF752B408D8972
:1016B00006EA05152B43CD8906EA05152B438380E1
:1016C0008483CD888587028470BD70B50022002395
:1016D0000024058C4EF6FF7635400584038C848803
:1016E000828B48F6FF752A404FF6FF452A400D8849
:1016F00020E00000002C01400004004000080040F1
:10170000000C004000100040001400400034014074
:10171000004C0140005001400054014000180040BE
:10172000001C0040002000400040014000440140F7
:10173000004801404FF6FF7606EA05252A434DF69C
:10174000FF752B400D8906EA05352B434D8806EAC7
:1017500005352B43FA4DA84202D0FA4DA84208D1D4
:101760004BF6FF752C408D894FF6FF7606EA8515FE
:101770002C4384808283CD88A0F84050038470BDC0
:10178000828B4FF2FF331A408283828B4FF6FF73B6
:1017900003EA01231A4382837047F0B50C461546CD
:1017A000002200210026078C4EF6FF7C07EA0C077A
:1017B0000784828B018C4FF6FF7707EA043640F6E8
:1017C000FF473A404FF6FF7707EA05273A434FF6BF
:1017D000FF7707EA03373A43D94FB8420ED0D94FC3
:1017E000B8420BD0B0F1804F08D0D74FB84205D0E7
:1017F000D64FB84202D0D64FB84206D14DF6FF7749
:10180000394046F48057394305E047F6FF573940E1
:1018100044F48057394382830184F0BD828B4FF6B4
:10182000F3731A408283828B0A4382837047F0B538
:101830000C461546002200210026078C4FF6FF6C4F
:1018400007EA0C070784828B018C4FF6FF7707EAC3
:1018500004264FF60C773A404FF6FF7707EA031756
:101860002F433A43B64FB8420ED0B64FB8420BD0D2
:10187000B0F1804F08D0B44FB84205D0B34FB84252
:1018800002D0B34FB84206D14FF6FF57394046F465
:101890008077394305E04FF2FF57394044F48077B1
:1018A000394382830184F0BD028B4FF2FF331A402B
:1018B0000283028B4FF6FF7303EA01231A4302836C
:1018C0007047F0B50C461546002200210026078C13
:1018D0004FF6EF7C07EA0C070784028B018C4FF66A
:1018E000FF7707EA041640F6FF473A404FF6FF77C6
:1018F00007EA03373A434FF6FF7707EA05273A43EB
:101900008F4FB8420ED08F4FB8420BD0B0F1804FFE
:1019100008D08D4FB84205D08C4FB84202D08C4FC2
:10192000B84206D14FF6DF77394046F01007394309
:1019300005E04FF65F77394044F0100739430283E2
:101940000184F0BD028B4FF6F3731A400283028BC1
:101950000A4302837047F0B50C4615460022002169
:10196000068C4FF6FE773E400684028B018C4FF6C4
:101970000C7632407E1C06EA03162E433243704E2C
:10198000B0420ED06F4EB0420BD0B0F1804F08D0B5
:101990006D4EB04205D06D4EB04202D06C4EB0429A
:1019A00006D14FF6FD76314044F00106314305E0A3
:1019B0004FF6F576314044F001063143028301844D
:1019C000F0BD70B505460C465D4885420ED05D48B9
:1019D00085420BD0B5F1804F08D05B48854205D0D9
:1019E0005A48854202D05A48854200D100E000BFE3
:1019F000208850B92389A28861882846FFF7ABFF69
:101A0000E1882846FFF79EFF25E0208804280AD1B8
:101A10002389A28861882846FFF753FFE18828467A
:101A2000FFF742FF17E0208808280AD12389A288FF
:101A300061882846FFF7FBFEE1882846FFF7EEFEA7
:101A400009E02389A28861882846FFF7A6FEE1887D
:101A50002846FFF795FE70BD2DE9F04105460C467E
:101A600000260127608808B9022600E00026A08829
:101A7000012801D1022700E001272088A0B923898D
:101A8000A28861882846FFF766FFE1882846FFF7AD
:101A900059FF23893A4631462846FFF712FFE1886D
:101AA0002846FFF701FF13E02389A28861882846B2
:101AB000FFF707FFE1882846FFF7F6FE23893A463D
:101AC00031462846FFF747FFE1882846FFF73AFFEF
:101AD000BDE8F0810A884B881A438B881A43CB886B
:101AE0001A430B891A434B891A438B891A43A0F86E
:101AF000442070474FF6FF71818000210180C18032
:101B00004180017270470021018041808180C18045
:101B1000018141818181C181704700210180418023
:101B2000012181800021C180018170470021018055
:101B300041808180C18001814181818170470000A5
:101B4000002C014000340140000400400008004027
:101B5000000C004021B1028842F00102028004E042
:101B600002884FF6FE731A400280704731B1B0F818
:101B7000442042F40042A0F8442005E0B0F844209C
:101B8000C2F30E02A0F8442070471AB183890B43B8
:101B9000838102E083898B43838170478182704710
:101BA00041EA0203A0F8483070471AB183890B4319
:101BB000838102E083898B438381704701894FF6DB
:101BC000F8721140018170470A46002101894FF6E1
:101BD0008F73194011430181704730B504460D469B
:101BE00029462046FFF7F0FF208940F007002081BA
:101BF00030BD2DE9F04104460D4616461F46602DC6
:101C000006D13B46012231462046FFF75AFE05E049
:101C10003B46012231462046FFF79DFE29462046DD
:101C2000FFF7D2FF208940F007002081BDE8F08156
:101C300030B50C4600210189C9B24FF6FF7505EA9F
:101C40000325154325432943018130BD2DE9F0418A
:101C500005460E4617469846002443463A46314606
:101C60002846FFF7E5FF2C894FF6F870044044F052
:101C700007044FF68F70044044F070042C81BDE8D7
:101C8000F081F0B504460D4616461F463B463246E7
:101C900029462046FFF7CCFF208940F48040208170
:101CA000F0BD0185828270470A46002101884FF607
:101CB0008F731940114301807047F0B50C461546EB
:101CC0001E460021002200230189028B038C4FF65F
:101CD000F877394021434FF6FC473A4040F201176C
:101CE0003A434FF6DD773B404FF6FF7707EA06179A
:101CF0002F433B43018102830384F0BD0A46002148
:101D0000018B4FF68F7319401143018370470A46C8
:101D10000021018B48F6FF7319404FF6FF7303EA69
:101D200002231943018370470A460021818B4FF635
:101D30008F7319401143818370470A460021818BBC
:101D400048F6FF7319404FF6FF7303EA0223194365
:101D50008183704721B1028842F08002028004E052
:101D600002884FF67F731A400280704721B1828843
:101D700042F00402828004E082884FF6FB731A402E
:101D80008280704721B1828842F00802828004E09C
:101D900082884FF6F7731A408280704721B182889B
:101DA00042F00102828004E082884FF6FE731A40FE
:101DB000828070470A460021018B4FF6F773194065
:101DC0001143018370470A460021018B4FF2FF73D4
:101DD00019404FF6FF7303EA02231943018370474A
:101DE0000A460021818B4FF6F77319401143818316
:101DF00070470A460021818B4FF2FF7319404FF65E
:101E0000FF7303EA02231943818370470A460021C6
:101E1000018B4FF6FB7319401143018370470A464B
:101E20000021018B4FF6FF3319404FF6FF7303EA91
:101E300002231943018370470A460021818B4FF624
:101E4000FB7319401143818370470A460021818B3F
:101E50004FF6FF3319404FF6FF7303EA022319438D
:101E6000818370470A460021018B4FF67F7319402A
:101E70001143018370470A460021018BC1F30E0113
:101E80004FF6FF7303EA02231943018370470A46A2
:101E90000021818B4FF67F73194011438183704776
:101EA0000A460021818BC1F30E014FF6FF7303EA4E
:101EB00002231943818370470A460021018C4FF6A3
:101EC000FD7319401143018470470A460021018CBB
:101ED0004FF6F77319401143018470470A460021F9
:101EE000018C4FF6DF7319404FF6FF7303EA0213BC
:101EF0001943018470470A460021018C4FF67F7315
:101F000019404FF6FF7303EA021319430184704727
:101F10000A460021018C4FF6FF5319404FF6FF731C
:101F200003EA02231943018470470A460021018C09
:101F30004FF2FF7319404FF6FF7303EA0223194370
:101F4000018470470A460021018C4DF6FF73194049
:101F50004FF6FF7303EA023319430184704730B52B
:101F6000002301248C40A3B2048C9C430484048C81
:101F700002FA01F5ADB22C43048430BD30B5002324
:101F800004248C40A3B2048C9C430484048C02FA85
:101F900001F5ADB22C43048430BD70B5034600207A
:101FA00000241846183001258D40ACB21D8CA54385
:101FB0001D8409B1082909D100EB6100056825F0ED
:101FC000700505600568154305600EE00D1FC5F33B
:101FD0004E052844056825F4E045056005684FF680
:101FE000FF7606EA02263543056070BD21B10288FE
:101FF00042F00202028004E002884FF6FD731A40AC
:102000000280704721B1028842F00402028004E09D
:1020100002884FF6FB731A400280704721B1828814
:1020200042F08002828004E082884FF67F731A407B
:102030008280704702884FF6F7731A400280028848
:102040000A430280704782884FF68F731A4082805D
:1020500082880A438280704702894FF6F8731A40DB
:10206000028102890A430281704702894FF67F7319
:102070001A40028102890A430281704781847047B5
:1020800081857047818670470187704781877047D7
:10209000A0F84010704702884FF6FF431A400280B4
:1020A00002880A43028070470146888E70470146C5
:1020B000088F70470146888F70470146B1F840008D
:1020C00070470146888C70470146088D704702466C
:1020D0000020138A0B400BB1012000E00020704764
:1020E000CA430282704730B5024600200023002414
:1020F000158A05EA0103958905EA010413B10CB1BB
:10210000012000E0002030BDCA4302827047000079
:1021100010B56FF00400FFF7CEF82E4800682E4986
:10212000B0FBF1F02D4908700846007800EB400143
:10213000C1EBC0104FF6FF7101EAC00028490880CA
:1021400010BD0146254A12784A434FF0E0235A61F8
:1021500000229A611A46126942F001021A6100BF18
:102160004FF0E022106900F001021AB100F4803251
:10217000002AF5D04FF0E022126922F001024FF060
:10218000E0231A6100229A6170470146144A1288BE
:102190004A434FF0E0235A6100229A611A461269BD
:1021A00042F001021A6100BF4FF0E022106900F016
:1021B00001021AB100F48032002AF5D04FF0E0227B
:1021C000126922F001024FF0E0231A6100229A61A5
:1021D000704700005400002000127A001400002014
:1021E0001600002010B586B0044601210420FEF739
:1021F00083FB01218803FEF77FFB18208DF8170071
:102200004FF40070ADF8140003208DF8160005A9F6
:102210007248FEF7B5F804208DF817000002ADF8FB
:10222000140003208DF8160005A96C48FEF7A8F8E5
:1022300001940020ADF810000C20ADF80E00002035
:10224000ADF80C00ADF80A00ADF8080001A964482B
:10225000FEF7F9FB01216248FEF781FC012240F202
:1022600025515F48FEF787FC25208DF800000120EE
:102270008DF8030000208DF8010002208DF8020087
:102280006846FEF7CEFF06B010BD10B586B0044616
:1022900001210420FEF730FB01214804FEF739FB41
:1022A00018208DF817000420ADF8140003208DF8D5
:1022B000160005A94948FEF763F804208DF81700B9
:1022C0000820ADF8140003208DF8160005A9434836
:1022D000FEF756F801940020ADF810000C20ADF880
:1022E0000E000020ADF80C00ADF80A00ADF80800B3
:1022F00001A93C48FEF7A7FB01213A48FEF72FFC55
:10230000012240F225513748FEF735FC26208DF892
:10231000000001208DF8030000208DF801008DF8E9
:1023200002006846FEF77DFF06B010BD70B504469A
:102330000D4629462046FEF77FFC00BF802120463F
:10234000FEF7E8FC0028F9D070BD2DE9F041074602
:102350000C46154600260DE014F8011B3846FEF722
:102360006BFC00BF40213846FEF7D4FC0028F9D0B2
:10237000701C86B2AE42EFDBBDE8F0810FB430B521
:10238000CBB0054601AC50A800904FF4947101A861
:10239000009B4F9A04F0A4FA002000900BE014F880
:1023A000011B2846FEF748FC00BF40212846FEF7E7
:1023B000B1FC0028F9D020780028F0D14BB030BC17
:1023C0005DF814FB10B540F225510548FEF7B8FC46
:1023D00018B120210248FEF7AAFC10BD00080140F8
:1023E00000380140004400407FB505460C460121FD
:1023F0000220FEF78EFAADF80850ADF80440002038
:10240000ADF80A00ADF8060001A95C48FFF746F8F0
:10241000012211465948FFF7B8FB1D208DF8000036
:1024200000208DF8010003208DF8020001208DF8B6
:1024300003006846FEF7F5FE01215048FFF78AFBCE
:102440007FBD10B501214D48FFF74DFE18B10121A8
:102450004A48FFF759FE10BD7FB505460C460121DD
:102460000846FEF756FAADF80850ADF804400020D3
:10247000ADF80A00ADF8060001A94FF08040FFF763
:102480000DF8012211469007FFF77FFB1C208DF805
:10249000000000208DF8010003208DF802000120CB
:1024A0008DF803006846FEF7BCFE01218807FFF7A0
:1024B00051FB7FBD10B501218807FFF714FE0028EE
:1024C0005BD001218807FFF71FFE0022012108468B
:1024D00000F055FA01220221104600F050FA284877
:1024E000027802230621012000F027FA02220121AE
:1024F000104600F044FA01220221084600F03FFA9B
:102500001F48427802230621184600F016FA0622D8
:102510000121042000F033FA07220221042000F0F8
:102520002EFA02220321042000F029FA01220421BC
:10253000084600F024FA13480278022309210420F7
:1025400000F0FBF903220121104600F018FA0422E2
:102550000221032000F013FA05220321084600F0AF
:102560000EFA01220421032000F009FA05484278FE
:1025700002230921032000F0E0F910BD000400400F
:10258000180000201C00002010B500245D480068E1
:1025900020F00F005B4908600846006840F0080022
:1025A000086004E0601CC4B20120FFF7CAFD564871
:1025B000006808B1642CF5DB642C01DB012010BD40
:1025C000002404E0601CC4B20120FFF7BAFD4E48AD
:1025D000006808B9642CF5DB642C01DB0120EEE710
:1025E0000020ECE710B54748006820F00F0045498F
:1025F00008600846006840F0030008600020424977
:10260000803108601420FFF7C0FD01203F49C1F868
:1026100080011E20FFF795FD10BD08B5012108209F
:10262000FEF76AF90120ADF8000010208DF80300D4
:1026300003208DF8020069463248FDF7A1FEFFF73E
:10264000D1FFFFF7A1FF08BD10B5002404E0601C16
:10265000C4B20120FFF775FD2B48006808B1642C57
:10266000F5DB002404E0601CC4B20120FFF769FD23
:102670002548006808B9642CF5DB2820FFF761FDC8
:102680002148006808B1012010BD0020FCE770B5AA
:102690000024002506E06006040EFFF7D5FF044382
:1026A000681CC5B2082DF6DB204670BD1CB5FFF7CF
:1026B00099FFFFF769FF00BB002405E0FFF7E7FF84
:1026C0000DF80400601CC4B2052CF7DB9DF8000077
:1026D0009DF8011008449DF8021008449DF803106D
:1026E00008449DF80410884209D19DF8000008496B
:1026F00048709DF80200087001E001201CBD002018
:10270000FCE70000000C01400081214200802142D2
:102710001800002008B501210820FEF7EDF814206C
:102720008DF8030003208DF802004FF48070ADF89F
:1027300000006946FE48FDF723FE4FF40070ADF837
:1027400000006946FA48FDF71BFE01221102F84815
:10275000FDF7C7FE01225102F548FDF7C2FE08BD94
:1027600010B501225102F248FDF7BBFE0122110211
:10277000EF48FDF7B6FE00224FF40071EC48FDF77C
:10278000B0FE00224FF48071E948FDF7AAFE10BDAB
:1027900010B500224FF40071E548FDF7A2FE0122BA
:1027A0001102E348FDF79DFE01225102E048FDF7CA
:1027B00098FE10BD70B50546002415E0802020412C
:1027C00000EA05024FF40071D948FDF78AFE0122A4
:1027D0001102D748FDF785FE00224FF48071D448DE
:1027E000FDF77FFE601CC4B2082CE7DB012211025A
:1027F000CF48FDF776FE00224FF48071CC48FDF7FC
:1028000070FE70BD10B50446FFF7AAFF7820FFF7F1
:10281000D1FF0020FFF7CEFF2046FFF7CBFFFFF7E9
:10282000B7FF10BD10B50446FFF79AFF7820FFF7F9
:10283000C1FF4020FFF7BEFF2046FFF7BBFFFFF7B9
:10284000A7FF10BD70B505460C4645F0B000FFF778
:10285000D9FF102141EA1410FFF7D4FF04F00F0054
:10286000FFF7D0FF70BD70B500240EE000212046B8
:10287000FFF7E8FF002504E00020FFF7D3FF681C06
:10288000C5B2802DF8DB601CC4B2082CEEDB70BD35
:102890002DE9F04105460E461746721ED206110E6E
:1028A0006A1E5206100EFFF7CDFF002409E0A7F1C3
:1028B0002001A04A02EB0111085DFFF7B3FF601C85
:1028C000C4B2082CF3DB721ED206110E6A1E01235D
:1028D00003EB4202D0B2FFF7B5FF00240BE0A7F1F3
:1028E0002001944A02EB011204F10801505CFFF749
:1028F00099FF601CC4B2082CF1DBBDE8F0812DE922
:10290000F04107460E461546002407E02A5D3019BF
:10291000C1B23846FFF7BCFF601CC4B2285D002876
:10292000F4D1BDE8F08110B50246012000E050432B
:102930000B1EA1F10101FAD110BD2DE9F04780462F
:102940000E4617461D46002415E0281B411E0A208E
:10295000FFF7E9FFB7FBF0F00A21B0FBF1F201FB52
:10296000120000F130093019C1B24A464046FFF763
:102970008FFF601CC4B2AC42E7DBBDE8F0872DE9F5
:10298000F04105460E461746721E1207110E6A1ECA
:102990005206100EFFF756FF002407E0664A02EBCE
:1029A0008711085DFFF73EFF601CC4B2102CF5DBF9
:1029B000721E1207110E6A1E012303EB4202D0B2EF
:1029C000FFF740FF002409E07900491C5A4A02EB56
:1029D0004111085DFFF726FF601CC4B2102CF3DB29
:1029E000BDE8F0812DE9F0478146884615461E4630
:1029F000002D06DB2B2241464846FFF749FF2F46B4
:102A000005E02D2241464846FFF742FF6F42002471
:102A100017E0301B411E0A20FFF785FFB7FBF0F0DF
:102A20000A21B0FBF1F201FB120000F1300A08EBC1
:102A30000400401CC1B252464846FFF729FF601C03
:102A4000C4B2B442E5DBBDE8F0872DE9F04781462A
:102A50000E4690461F4600241DE0381B411E1020E4
:102A6000FFF761FFB8FBF0F000F00F050A2D08DA60
:102A700005F13000C2B23019C1B24846FFF708FF75
:102A800007E005F13700C2B23019C1B24846FFF77E
:102A9000FFFE601CC4B2BC42DFDBBDE8F0872DE95D
:102AA000F04780460E4617461D46002412E0281BBC
:102AB000411E0220FFF737FFB7FBF0F000F00100E6
:102AC00000F130093019C1B24A464046FFF7E0FE36
:102AD000601CC4B2AC42EADBBDE8F08770B50024EC
:102AE00006E0002500E06D1CB5F57A7FFBD3641C81
:102AF000B4F57A7FF5D3FFF70DFEAE20FFF782FE27
:102B0000D520FFF77FFE8020FFF77CFEA820FFF78F
:102B100079FE3F20FFF776FED320FFF773FE0020FB
:102B2000FFF770FE4020FFF76DFEA12006E00000D9
:102B3000000C01405AA300084AA90008FFF762FEF2
:102B4000C820FFF75FFEDA20FFF75CFE1220FFF7D8
:102B500059FE8120FFF756FECF20FFF753FED92004
:102B6000FFF750FEF120FFF74DFEDB20FFF74AFE96
:102B70003020FFF747FEA420FFF744FEA620FFF712
:102B800041FE8D20FFF73EFE1420FFF73BFEAF20F5
:102B9000FFF738FEFFF767FE70BD000008B50121A2
:102BA0001020FDF7A9FE10208DF803004FF4C0405F
:102BB000ADF8000001208DF8020069460F48FDF7CE
:102BC000DFFB08BD10B54FF480410C48FDF787FCD2
:102BD00010BD10B54FF480410848FDF77EFC10BDD4
:102BE00010B54FF400510548FDF779FC10BD10B544
:102BF0004FF400510148FDF770FC10BD001001407A
:102C000000B587B001214FF40170FDF775FE8120FA
:102C1000ADF8180000208DF81B0003208DF81A0075
:102C200006A94548FDF7ACFB4FF40040FDF7C8FD91
:102C30004248FEF7C9F800208DF8090004904FF4CF
:102C4000602003900020019001208DF814000020E6
:102C50008DF8080001A93948FEF7DDF80121374851
:102C6000FEF705F93548FEF724F900BF3348FEF7B3
:102C700025F90028FAD13148FEF72AF900BF2F487C
:102C8000FEF72BF90028FAD107B000BD10B50446B5
:102C90000723012221462948FEF755F9012127483B
:102CA000FEF725F900BF02212448FEF791FA00281B
:102CB000F9D02248FEF7AEF910BD2DE9F0470746DE
:102CC0000C460025002608E03846FFF7DFFF0544E4
:102CD0000120FFF75AFA701CC6B2A642F4DBB5FB1E
:102CE000F4F8404607F06AF915490860084601689B
:102CF000144807F043FA8246134907F081F88146E9
:102D0000124907F06FF9804607F03CF91049086056
:102D10000846008880B2BDE8F08710B50A21072078
:102D2000FFF7CBFF0B4908700A210020FFF7C5FF12
:102D300008494870012010BD0008014000240140EE
:102D40003800002000C07F4500C04D450000C8424B
:102D5000200000201C00002010B54FF400719648A0
:102D600004F0D4F800209549088010BD93480088ED
:102D700008B9012070479148008891490988884224
:102D800003D100208D490880F4E78C4800888C49E5
:102D900008800120EEE72DE9F04104460D46C826E3
:102DA000204603F0C6FF87B23A4621468548FFF722
:102DB000CCFA0FE0FFF7DAFF48B929467E4803F066
:102DC00082FF20B1FFF7C8FF0020BDE8F0810A2094
:102DD000FFF7DBF9301EA6F10101CEB2EAD10120E6
:102DE000F3E730B589B004460D46FFF7B5FF2A4634
:102DF00075A101A803F08EFD77A101A8FFF7CBFF15
:102E000020B92A4621466F48FFF79FFA09B030BD26
:102E100070B50546002400BFFFF7A8FF80B96FA179
:102E2000654803F050FF044654B13A21204603F0B0
:102E30002EFF044614B1641C204670BD0020FCE740
:102E40000520FFF7A2F9681E85B2002DE4D100200D
:102E5000F3E708B501210420FDF74EFD10208DF8A1
:102E600003000220ADF8000003208DF8020069463F
:102E70005C48FDF785FA002202215A48FDF731FB34
:102E8000FA20FFF782F9012202215648FDF729FBBB
:102E90004FF4FA70FFF779F9FFF75EFF52A154483B
:102EA000FFF76CFA03E04FF4FA70FFF76EF951A1E7
:102EB00051A0FFF770FF0028F5D151A14C48FFF752
:102EC0005DFA03E04FF4FA70FFF75FF944A14FA0F9
:102ED000FFF761FF0028F5D14FA14548FFF74EFAF3
:102EE00003E04FF4FA70FFF750F93DA14DA0FFF752
:102EF00052FF0028F5D14FA13D48FFF73FFA03E00C
:102F00004FF4FA70FFF741F93AA14DA0FFF743FFE4
:102F10000028F5D14EA13648FFF730FA03E04FF410
:102F2000FA70FFF732F933A14DA0FFF734FF002804
:102F3000F5D14FA12E48FFF721FA03E04FF4FA70C4
:102F4000FFF723F94DA14FA0FFF725FF0028F5D18A
:102F500053A12748FFF712FA03E04FF4FA70FFF786
:102F600014F953A154A0FFF716FF0028F5D15DA175
:102F70001F48FFF703FA08BD10B540F2255111486C
:102F8000FDF7DEFEB8B10D480088B0F5007F02D332
:102F900000200A4908800B48001D0088C1B207487C
:102FA00002880088401C054B18800348815420216A
:102FB0000448FDF7BCFE10BD68000020240000207E
:102FC000260000200044004041542B434950534503
:102FD0004E443D25640D0A003E0000004950442C3B
:102FE0000000000000080140302E2041540D0A006E
:102FF000003801404F4B000041540D0A0000000012
:10300000312E2041542B5253540D0A0041542B525F
:1030100053540D0A000000002041542B5253540D0C
:103020000A00000041542B434C50434C4F53450D74
:103030000A000000322E2043574D4F44450D0A0030
:1030400041542B43574D4F44453D310D0A0000007C
:10305000332E2041542B4357444843500D0A00005F
:1030600041542B4357444843503D312C310D0A0005
:10307000342E2043574A41500D0A0000474F542038
:103080004950000041542B43574A41503D22616250
:1030900063222C223636363636363636220D0A0074
:1030A000352E2043495053544152540D0A0000001C
:1030B000434F4E4E4543540041542B4349505354C3
:1030C0004152543D22544350222C223138332E3267
:1030D00033302E34302E3339222C363030320D0A34
:1030E00000000000362E2045535038323636204935
:1030F0006E6974204F4B0D0A0000000070B5044645
:103100000E460025206898B901202073304603F050
:1031100083FB20602068E0B100206060A66003E0CF
:103120000020216848556D1CA068A842F8D810E01E
:103130000220207303E00020216848556D1CA06820
:10314000A842F8D800206060A068B04201D20020F8
:10315000206070BD10B50446207B012802D1206894
:1031600003F089FB002020606060A060207310BD28
:103170000246002301230DE002F07F000870D2090F
:103180002AB1087840F080000870491C01E0184618
:1031900070475B1C042BEFDD4FF0FF30F8E7F0B514
:1031A00004460D462646012300201060002114E04D
:1031B000775C07F07F07106807FB03001060705C06
:1031C00000F0800008B9481CF0BDDB01B3F5001F1A
:1031D00002D36FF00100F7E7491CA942E8DB4FF08A
:1031E000FF30F1E7F8B50446FF2720780511012DDF
:1031F00001DB0E2D01DD3846F8BD032D24D1002062
:1032000000906A460421601CFFF7C9FF2044461C59
:103210000098022803D3207800F0010008B1FF20B5
:10322000EAE77078317840EA0120801C00998842F2
:1032300001D9FF20E0E7F8A1B01C03F044FD08B17C
:103240000F2700E0032700E02F463846D4E72DE99A
:10325000FF4F83B082468B469146159C0025002087
:1032600002900F270190484603F063FD0FFA80F8A3
:10327000B9F1000F03D1012007B0BDE8F08F08F1CC
:103280000200384487B2109808B145F00205129840
:1032900078B145F00405129803F04BFDC0B20290DE
:1032A000139803F046FD01460298001D0844384477
:1032B00087B2119820B1012804D0022808D104E077
:1032C00000BF07E045F00C0504E045F0140501E0FF
:1032D0000220D1E700BF149808B145F02405BAF1E7
:1032E000000F02D0BBF1000F01D10320C4E745F06D
:1032F000C005504603F01DFD0646584603F019FD73
:103300003044001D384487B239462046FFF7F6FEA8
:10331000206808B90420AFE73946206803F0F6FDBD
:1033200010216268501C606020688154D4E9002339
:10333000D118781FFFF71CFF00B2019001980028F8
:1033400004DA2046FFF706FF052095E7616801983B
:103350000844606000216268501C606020688154ED
:1033600004216268501C6060206881544D216268AD
:10337000501C60602068815451216268501C60605C
:103380002068815454216268501C60602068815418
:103390006268501C60602068815404216268501C7F
:1033A0006060206881546168481C606020684554F2
:1033B0000698010A6268501C606020688154069873
:1033C000C1B26268501C606020688154C8F3072154
:1033D0006268501C6060206881546268501C6060A4
:1033E000206800F80280D4E9001288184246494655
:1033F00003F057FC60684044606005F00400B8B317
:103400000026139808B986A01390129803F091FC37
:1034100086B2310A6268501C60602068815462681C
:10342000501C606020688654D4E900128818324627
:10343000129903F036FC606830446060139803F022
:1034400078FC86B2310A6268501C60602068815442
:103450006268501C606020688654D4E900128818A5
:103460003246139903F01DFC60683044606000BF71
:1034700005F08000C8B1504603F05BFC86B2310A0B
:103480006268501C6060206881546268501C6060F3
:1034900020688654D4E9001288183246514603F059
:1034A00000FC60683044606000BF05F04000C8B1B7
:1034B000584603F03EFC86B2310A6268501C6060D8
:1034C000206881546268501C606020688654D4E98A
:1034D000001288183246594603F0E3FB6068304416
:1034E000606000BF0020C7E610B5044602212046F8
:1034F000FFF704FE206808B9012010BDE0216268D2
:10350000501C60602068815400216268501C60601B
:10351000206881540020F0E701464878022801D055
:1035200001207047887810B18878012801D1C878C7
:10353000F7E7FF20F5E72DE9FF4F83B083461746F5
:103540009946139C00250026002002900190804699
:10355000BBF1000F03D1012007B0BDE8F08F0026BA
:103560000AE00498805D232803D00498805D2B280E
:1035700001D10220F0E7761C0498805D0028F0D18C
:1035800048F03008119808B148F0010806EB09002E
:10359000851C109820B1012804D002280AD105E02A
:1035A00000BF09E048F00208AD1C05E048F004083F
:1035B000AD1C01E00320CFE700BF67B338780228D5
:1035C00021D14FF0000A00BF50460AF1010A385CD1
:1035D0007D28F9D1AAF1030A0AF1070002900298A6
:1035E000A9EB000AE81CA0EB0A012046FFF786FDC4
:1035F000206808B90420AFE7EA1CA2EB0A012068A2
:1036000003F084FC1FE0691D2046FFF777FD20686A
:1036100040B90420A0E70AE024637265710000004D
:1036200000000000691D206803F070FC0BE0691DBC
:103630002046FFF763FD206808B904208CE7691D68
:10364000206803F063FC6168481C6060206800F833
:103650000180D4E9000281182846FFF789FD019016
:103660000198002804DA2046FFF774FD052073E76F
:103670006168019808446060C6F307216268501CC5
:103680006060206881546268501C606020688654C5
:10369000D4E9001288183246049903F002FB6068EE
:1036A00030446060109860B14FEA1B216268501C82
:1036B0006060206881546268501C6060206800F877
:1036C00002B0C7B1387802280BD1D4E900128818AB
:1036D0003946029A03F0A3FB6168029808446060CF
:1036E00009E0D4E9001288184A46394603F097FBEE
:1036F00060684844606000202EE72DE9FF410746DE
:103700000D4690461E460A9C01200021CDE900018D
:10371000EB1C0A46FAA1CDE902040A20FFF70BFFD1
:1037200088B96168481C606020684654C5F3072169
:103730006268501C6060206881546268501C606040
:103740002068855403E0012004B0BDE8F08100202A
:10375000FAE72DE9F04F85B080460D4691460120ED
:1037600004900027002600244FF0000A404603F092
:10377000E0FA00F10D0B584603F04EF807461FB96A
:10378000049805B0BDE8F08F4246DEA1384603F04C
:10379000C1F8384603F0CDFAC6B2F01D00EB050AB9
:1037A000AAEB050003F038F8044624B9384603F0C4
:1037B00062F80498E5E70220207000206070A6708F
:1037C00032463946E01C03F02AFB290EF01C215436
:1037D000C5F30741301D2154C5F30721701D215445
:1037E000B01D255401200021CDE900015346224699
:1037F000C3A1CDE902090A20FFF79DFE08B9002008
:103800000490384603F037F8204603F034F8049863
:10381000B7E72DE9F84380460C4615461E462F2192
:1038200008F1060003F033FA07460020009017B9AC
:103830000120BDE8F8837F1C6A46042108F10100DD
:10384000FFF7ADFC252002F0E7FF2060206808B9F3
:103850000220EEE72521206803F058FB2422394698
:10386000206803F0DCFA243700982C383080318847
:10387000481C02F0D1FF2860286820B9206802F0B7
:10388000FAFF0320D5E73288511C286803F03EFB7D
:1038900032883946286803F0C2FA0020C9E72DE9CA
:1038A000FF5F07460D469046384603F042FA86B25F
:1038B000284603F03EFA1FFA80FA4FF00009F01D87
:1038C00002F0AAFF04461CB9012004B0BDE8F09F35
:1038D000F11D204603F01AFB8EA00168216080884C
:1038E000A08032463946204603F0DBF9284603F033
:1038F00020FA83460120002100915B462A46CDE94B
:103900000208019121460A20FFF715FE10B94FF079
:10391000000901E04FF00109204602F0ACFF4846E3
:10392000D3E72DE9FF5F8046174699460E9C002697
:10393000B246B3460025B8F1000F03D1012004B010
:10394000BDE8F09F0BE057F8250008B90220F6E724
:1039500057F8250003F0EDF90644681CC5B24D4543
:10396000F1DB09EB4900801C00EB060A0AF10501B6
:103970002046FFF7C3FB206808B90320DFE7822158
:103980006268501C606020688154D4E9000281188C
:103990005046FFF7EDFB0FFA80FBBBF1000F04DA96
:1039A0002046FFF7D7FB0420C9E7606858446060F1
:1039B0004FEA18216268501C606020688154626878
:1039C000501C6060206800F80280002524E057F851
:1039D000250003F0AEF90646C6F307216268501CC5
:1039E0006060206881546268501C60602068865462
:1039F000D4E90023D01857F82510324603F051F9C6
:103A00006068304460600198C1B26268501C6060B8
:103A100020688154681CC5B24D45D8DB00208EE774
:103A20000146FF208A78A2B9CA78142A11D10A79EE
:103A300032B1012A05D0022A04D0802A06D103E03F
:103A400000BF00BF002003E0012001E0022000BF12
:103A500000BF70472DE9F05F80460F4691461C4637
:103A60000026B246B3460025B8F1000F02D101206E
:103A7000BDE8F09F0BE057F8250008B90220F7E7F2
:103A800057F8250003F055F90644681CC5B24D45AA
:103A9000F1DB022000EB490000EB060A0AF1050108
:103AA0002046FFF72BFB206808B90320E0E7A2219E
:103AB0006268501C606020688154D4E9000281185B
:103AC0005046FFF755FB0FFA80FBBBF1000F04DAFD
:103AD0002046FFF73FFB0420CAE760685844606057
:103AE0004FEA18216268501C606020688154626847
:103AF000501C6060206800F8028000252CE0000067
:103B0000246470007B2264735F6964223A22257307
:103B1000227D000024637273702F000057F8250087
:103B200003F007F90646C6F307216268501C60607F
:103B3000206881546268501C606020688654D4E913
:103B40000023D01857F82510324603F0AAF8606811
:103B500030446060681CC5B24D45DFDB002087E75C
:103B6000014601208A781AB9CA781E2A00D100209D
:103B700070472DE9FC5F81460D4614461E46DDE97F
:103B80000C8B99F8000000F00F0A002001900AF059
:103B900008000090CAF341008BF8000001AA04213C
:103BA00009F10100FFF7FBFA4844471C019802287D
:103BB00002D30AF0010010B1FF20BDE8FC9F787825
:103BC000397840EA012020802088801C01998842B1
:103BD00001D9FF20F1E7AFF2C051B81C03F073F830
:103BE00008B10F20E9E79BF8000020B101283DD083
:103BF000022877D13BE0009808B1FF20DDE721885B
:103C0000481C02F009FE2860286808B9FF20D4E7A4
:103C10002288511C286803F079F92288B91C286889
:103C200003F0FDF80198801E2188401AA8F80000D2
:103C3000B8F80010481C02F0EFFD3060306820B981
:103C4000286802F018FEFF20B7E7B8F80020511CE2
:103C5000306803F05BF9B8F80020B4F800C0BB1C72
:103C60000CEB0301306803F0DAF84FE000BF208866
:103C7000801C0199884201D9FF209EE72088C01C42
:103C8000395C2088801C385C41EA00210E98018054
:103C90000E9808B9FF2090E72188481C02F0BCFD6F
:103CA0002860286808B9FF2087E72288511C286807
:103CB00003F02CF92288B91C286803F0B0F80198A9
:103CC000001F2188401AA8F80000B8F80010481C0E
:103CD00002F0A2FD3060306828B9286802F0CBFD00
:103CE000FF206AE710E0B8F80020511C306803F0AC
:103CF0000DF9B8F80020B4F800C03B1D0CEB03012F
:103D0000306803F08CF801E0FF2056E700BF2B215C
:103D1000284602F0BCFF20B92321284602F0B7FF55
:103D200008B1FF2049E7002047E770B505460C467B
:103D300004212046FFF7E2F9206808B9012070BD90
:103D400040216268501C60602068815402216268D2
:103D5000501C60602068815429126268501C6060A9
:103D6000206881546268501C60602068855400207F
:103D7000E5E701464878022801D00120704788789D
:103D800020B9C8780A2801D10020F7E70120F5E71B
:103D900070B505460C4604212046FFF7AFF92068B0
:103DA00008B9012070BD50216268501C6060206815
:103DB000815402216268501C60602068815429127D
:103DC0006268501C6060206881546268501C6060AA
:103DD000206885540020E5E701464878022801D094
:103DE00001207047887820B9C8780A2801D10020BE
:103DF000F7E70120F5E770B505460C46042120469B
:103E0000FFF77CF9206808B9012070BD6221626863
:103E1000501C60602068815402216268501C606000
:103E20002068815429126268501C606020688154A7
:103E30006268501C6060206885540020E5E70246F7
:103E40005078022801D0012070479078B0EB112FF4
:103E500005D1D078CBB2984201D10020F4E70120FF
:103E6000F2E770B505460C4604212046FFF746F9F7
:103E7000206808B9012070BD70216268501C606024
:103E80002068815402216268501C6060206881545F
:103E900029126268501C6060206881546268501C5E
:103EA0006060206885540020E5E7014648780228D4
:103EB00001D001207047887820B9C8780A2801D13C
:103EC0000020F7E70120F5E710B50446022120465F
:103ED000FFF714F9206808B9012010BDC0216268FD
:103EE000501C60602068815400216268501C606032
:103EF000206881540020F0E730B58BB00020079097
:103F0000089009900A900125DFA0E2A3E3A2E5A1B1
:103F10000090F048FEF732FA07A8002102910391C1
:103F2000CDE9041000912B02D7A20191D9A1DBA009
:103F3000FFF78DF9002842D1089A91B20798FEF751
:103F400050FFFA20FEF764FF0446002C33D02046D1
:103F5000FFF748F902282ED12046FFF7DDFA0628A0
:103F600023D2DFE800F003090E13181DDAA1D948A7
:103F7000FEF704FA00251DE0DCA1D648FEF7FEF9A5
:103F800018E0E1A1D348FEF7F9F913E0E7A1D14821
:103F9000FEF7F4F90EE0EDA1CE48FEF7EFF909E0E7
:103FA000F3A1CC48FEF7EAF904E0FCA1C948FEF70A
:103FB000E5F900BF00BF07A8FFF7CCF803E0FEA1BA
:103FC000C448FEF7DBF928460BB030BD70B586B0AB
:103FD00004460D46002600200290039004900590B0
:103FE00007E054F82620FDA1BA48FEF7C7F9701C77
:103FF000C6B2AE42F5DB02A82B4622460221009053
:104000001420FFF78EFC38B9039A91B20298FEF79C
:10401000E8FE02A8FFF79EF806B070BD10B588B0A4
:1040200004462021684602F093FFF2A00088208019
:104030002021684602F08CFFEF480278EFA1684625
:1040400002F068FC6946204602F0DDFE2021684649
:1040500002F07EFFE8484278ECA1684602F05AFC84
:104060006946204602F0CFFE2021684602F070FF2C
:10407000EA480278EAA1684602F04CFC694620460C
:1040800002F0C1FE2021684602F062FFE348427858
:10409000E6A1684602F03EFC6946204602F0B3FE07
:1040A0002021684602F054FFE348E4A10268684614
:1040B00002F030FC6946204602F0A5FE2021684649
:1040C00002F046FFE148E2A10268684602F022FCE5
:1040D0006946204602F097FE2021684602F038FF2C
:1040E000DF480278DFA1684602F014FC69462046EA
:1040F00002F089FE2021684602F02AFFDC4802789F
:10410000DCA1684602F006FC6946204602F07BFE10
:104110002021684602F01CFFDA480278DAA16846DE
:1041200002F0F8FB6946204602F06DFED9A1204658
:1041300002F069FE204602F0FCFDC0B208B010BDDE
:1041400030B5A5B000202190229023902490002427
:104150000025D1A15F48FEF711F9802101A802F0E6
:10416000F7FE01A8FFF75AFF0446002C26D021A82D
:10417000032300222146009043A0FFF7BEFAC8B9EE
:1041800008E001A8415D229A501C22902198815498
:10419000681C05B2A542F4DB229A91B22198FEF781
:1041A00020FEC5A14B48229AFEF7E8F821A8FEF7A9
:1041B000D1FF03E0C4A14748FEF7E0F825B030BDC9
:1041C0002DE9F14F92B000200E900F9010901190B9
:1041D0000D900C900B900A90002609900025002469
:1041E00005901298FEF7FEFF0646F01E0D2843D2FA
:1041F000DFE800F02B4948474642454244424242EC
:1042000007000AAB0DAA0CA91298FFF702FB05469E
:10421000D5B9BDF828000090B3A12E48DDE90C23E4
:10422000FEF7ACF80EAADDE90C01FFF738FB58B930
:10423000B6A12848FEF7A2F80F9A91B20E98FEF7A1
:10424000D0FD0EA8FEF786FF65E2B64809A90AAAC6
:104250000DABCDE9002102900BAA0CA91298FFF733
:1042600088FC0546002D08D1BDF828000D99CDE940
:104270000010BDF82C3057E14AE2E4E13AE22BE2CB
:1042800021E204E2E9E1DFE131323035373333371F
:1042900030350000737977363636000036333031EA
:1042A000303100004F6E654E65745F4465764C6931
:1042B0006E6B0D0A50524F49443A2025732C094128
:1042C0005549463A2025732C0944455649443A2518
:1042D000730D0A0000380140546970733A09C1AC8B
:1042E000BDD3B3C9B9A60D0A000000005741524E14
:1042F0003A09C1ACBDD3CAA7B0DCA3BAD0ADD2E9EC
:10430000B4EDCEF30D0A00005741524E3A09C1AC4C
:10431000BDD3CAA7B0DCA3BAB7C7B7A8B5C4636C8E
:1043200069656E7469640D0A000000005741524EC1
:104330003A09C1ACBDD3CAA7B0DCA3BAB7FECEF16F
:10434000C6F7CAA7B0DC0D0A000000005741524E64
:104350003A09C1ACBDD3CAA7B0DCA3BAD3C3BBA7CB
:10436000C3FBBBF2C3DCC2EBB4EDCEF30D0A00001D
:104370005741524E3A09C1ACBDD3CAA7B0DCA3BA6B
:10438000B7C7B7A8C1B4BDD328B1C8C8E7746F6BAD
:10439000656EB7C7B7A8290D0A0000004552523A0A
:1043A00009C1ACBDD3CAA7B0DCA3BACEB4D6AAB4F7
:1043B000EDCEF30D0A0000005741524E3A094D511F
:1043C00054545F5061636B6574436F6E6E656374C4
:1043D000204661696C65640D0A00000053756273C4
:1043E000637269626520546F7069633A2025730DAA
:1043F0000A0000007B0000001800002054656D706A
:104400007265747572653A25642C000048756D6993
:10441000646974793A25642C000000001C000020B7
:10442000536F696C3A25642C000000004C69676882
:10443000743A25642C00000044000020536F696C1E
:1044400076616C75653A25642C00000048000020F8
:104450004C6967687476616C75653A25642C000058
:1044600041000020536F696C6B65793A25642C001C
:10447000420000204C696768746B65793A25642CAA
:1044800000000000400000204175746F666C616799
:104490003A2564007D000000546970733A094F6E3C
:1044A000654E65745F53656E64446174612D4D5152
:1044B00054540D0A0000000053656E6420256420EA
:1044C00042797465730D0A005741524E3A094544CA
:1044D000505F4E6577427566666572204661696C0D
:1044E00065640D0A00000000636D6469643A20256C
:1044F000732C207265713A2025732C207265715FD0
:104500006C656E3A2025640D0A00000054697073D2
:104510003A0953656E6420436D64526573700D0AE9
:10452000000000002800002092A1A1480C9AFDF78D
:1045300025FF0D9801F06EF8074627B99DA19C480C
:10454000FDF71CFF4DE0A3A1384601F069FCD0F84F
:104550001480B8F1010F02D10120A0490870B8F110
:10456000000F02D100209D4908709DA1384601F03E
:1045700057FCD0F814A0BAF1010F02D101209949DB
:104580000870BAF1000F02D100209649087096A178
:10459000384601F045FCD0F81490B9F1010F02D172
:1045A000012093490870B9F1000F02D10020904911
:1045B000087090A1384601F033FCD0F814B0BBF17C
:1045C000640F02DC8D48C0F800B08DA1384601F0C0
:1045D00027FC406904900498642802DC8949049807
:1045E0000860384600F014FA9DF82400012802D033
:1045F000022826D112E00EA983480088FFF795FB18
:1046000058B982A16A48FDF7B9FE0F9A91B20E9887
:10461000FEF7E7FB0EA8FEF79DFD13E00EA97A4812
:104620000088FFF7B5FB58B97EA16148FDF7A6FEEB
:104630000F9A91B20E98FEF7D4FB0EA8FEF78AFDF2
:1046400000E000BF00BF66E01298FFF792FB18B9C8
:104650007AA15748FDF792FE5DE01298FFF7BCFB88
:10466000A0B97EA15248FDF789FE0EA90A20FFF7E6
:10467000C2FB58B97FA14E48FDF780FE0F9A91B258
:104680000E98FEF7AEFB0EA8FEF764FD43E05E4811
:1046900001881298FFF7D3FBA0B97CA14448FDF72D
:1046A0006DFE0EA90A20FFF7DCFB58B97DA140483A
:1046B000FDF764FE0F9A91B20E98FEF792FB0EA8DA
:1046C000FEF748FD27E01298FFF7EFFB18B97CA131
:1046D0003748FDF753FE1EE01298FFF7A1F920B905
:1046E0007DA13348FDF74AFE03E082A13048FDF783
:1046F00045FE10E01298FFF733FA20B984A12C4848
:10470000FDF73CFE03E089A12948FDF737FE02E0F2
:104710004FF0FF3500BF00BFFEF71EFB681C10B94D
:1047200013B0BDE8F08F7D210D9802F0B0FA044679
:10473000A4B1681C90B1641C06E014F8012B059824
:10474000411C059106A90A542078302802DB207804
:104750003928F2DD06A802F08DFA05900F2E01D05F
:10476000032E05D10C9802F086F80D9802F083F81C
:1047700000BFD5E7746F7069633A2025732C2074ED
:104780006F7069635F6C656E3A2025642C207061E0
:10479000796C6F61643A2025732C207061796C6F9D
:1047A00061645F6C656E3A2025640D0A00000000AC
:1047B000003801406A736F6E207061636B20696E10
:1047C000746F20636A736F6E206572726F722E2E23
:1047D0002E0D0A004175746F00000000400000209B
:1047E0004C4544004200002057617465720000008F
:1047F00041000020536F696C00000000440000205D
:1048000053756E0048000020280000205469707322
:104810003A0953656E64205075626C697368416330
:104820006B0D0A00546970733A0953656E64205029
:1048300075626C6973685265630D0A005469707320
:104840003A094D515454205075626C697368205375
:10485000656E64204F4B0D0A0000000054697073B0
:104860003A09526576205075626C697368526563C7
:104870000D0A0000546970733A0953656E64205044
:1048800075626C69736852656C0D0A0054697073C7
:104890003A09526576205075626C69736852656C8E
:1048A0000D0A0000546970733A0953656E64205014
:1048B00075626C697368436F6D700D0A00000000CB
:1048C000546970733A09526576205075626C697349
:1048D00068436F6D700D0A00546970733A094D5149
:1048E000545420537562736372696265204F4B0D97
:1048F0000A000000546970733A094D515454205312
:104900007562736372696265204572720D0A0000F8
:10491000546970733A094D51545420556E53756261
:10492000736372696265204F4B0D0A00546970739E
:104930003A094D51545420556E5375627363726930
:104940006265204572720D0A00000000FE48006892
:10495000704770B504460D462CB9AC4201D0012019
:1049600070BD0020FCE70DB90120F9E705E02078D3
:1049700008B90020F4E7641C6D1C207801F0A2FF48
:104980000646287801F09EFF8642F0D0207801F09C
:1049900099FF0646287801F095FF301AE0E770B5D8
:1049A0000446204602F0C5F9451C2846E749096837
:1049B0008847061E00D170BD2A462146304602F0C7
:1049C0002EFA3046F7E730B9E149E04A1160E14993
:1049D000E14A11607047016809B1016800E0DC49F3
:1049E000DA4A1160416809B1416800E0D949DA4A00
:1049F000116000BFEEE710B52820D4490968884748
:104A000004461CB12821204602F0A2FA204610BD1F
:104A100070B5044622E02568A08900F4807020B9B2
:104A2000A06810B1A068FFF7F3FFA08900F48070C0
:104A300028B9206918B1C849206909688847A08940
:104A400000F4007028B9206A18B1C349206A0968C7
:104A500088472046C049096888472C46002CDAD18F
:104A600070BD2DE9F04F8BB083468A460020044686
:104A700005460026B94F0021884689460990012045
:104A800008909AF800002D2802D1B54F0AF1010ACA
:104A90009AF80000302801D10AF1010A9AF80000C2
:104AA000312822DB9AF8000039281EDC00BF1AF8F2
:104AB000011BA1F1300004F0B2FD0022A94BCDE9A9
:104AC00006012046294604F0FDFDCDE90401DDE99B
:104AD000062304F025FB04460D469AF80000302812
:104AE00003DB9AF800003928E1DD9AF800002E284F
:104AF00030D19AF8010030282CDB9AF801003928CF
:104B000028DC0AF1010A00BF1AF8011BA1F13000EC
:104B100004F085FD0022934BCDE90601204629468D
:104B200004F0D0FDCDE90401DDE9062304F0F8FA34
:104B300004460D460022894B4046494604F0E8FFF2
:104B4000804689469AF80000302803DB9AF8000076
:104B50003928D9DD9AF80000652803D09AF80000BA
:104B6000452823D10AF1010A9AF800002B2802D126
:104B70000AF1010A08E09AF800002D2804D14FF04C
:104B8000FF3008900AF1010A08E01AF8010B3038EA
:104B9000099901EB810100EB410009909AF80000AE
:104BA000302803DB9AF800003928EEDDDDE9082122
:104BB00001FB02F004F033FD42464B46CDE9000113
:104BC00004F0AEFA02460B46CDE902010020654929
:104BD00003F068FD22462B46CDE9060130463946F2
:104BE00004F070FDCDE90401DDE9062304F06AFD5F
:104BF00004460D46CBE906452046294604F0E0FC74
:104C0000CBF814000320CBF80C0050460BB0BDE8E5
:104C1000F08F0146491E41EA610141EAA10141EAE2
:104C2000211141EA212141EA2141481C70472DE927
:104C3000F04104460E460CB1206810B90020BDE8D2
:104C4000F081A06806446068B04203DBA168206878
:104C50000844F4E73046FFF7DCFF074638463B4997
:104C60000968884705463DB93B4920680968884777
:104C7000002060602060E2E725B12846D4E90012F8
:104C800002F0CDF8344920680968884767602560DC
:104C9000A0682844D3E770B504460CB1206808B971
:104CA000002070BDA16820684518284602F041F830
:104CB000A1680844F5E72DE9FC4782460E464FF00F
:104CC0000009DAE90645002213462046294604F089
:104CD0003BFC13D12EB102213046FFF7A8FF8146DD
:104CE00004E002201949096888478146B9F1000F9C
:104CF00003D01DA00088A9F800009FE0DAF8140096
:104D000004F08DFC074622462B4604F001FF21F0FB
:104D100000410022154BCDE9000104F097FC3ED87C
:104D2000134A144B2046294604F090FC37D8002241
:104D3000114B2046294604F0C3FD30D806B3152197
:104D40003046FFF774FF19E02C00002030000020EF
:104D50001968000877680008340000200000F03F60
:104D60000000F0BF00002440300000000000B03C14
:104D70000000C0FFFFFFDF410000E0C1814604E00A
:104D80001520FA49096888478146B9F1000F55D0C6
:104D9000F7A14846DAF8142001F0BCFD4EE02EB130
:104DA00040213046FFF743FF814604E04020EF49B1
:104DB000096888478146B9F1000F3FD0204629464F
:104DC00003F002FC074622462B4604F0A1FE21F028
:104DD00000410022E74BCDE9000104F037FC0FD879
:104DE00025F000412746E44AE44B384604F02EFC07
:104DF00006D222462B46E2A1484601F08BFD1DE07B
:104E000025F000412746E04AE04B384604F01EFCFE
:104E100007D325F000410022DD4B384604F050FD59
:104E200006D222462B46DBA1484601F073FD05E081
:104E300022462B46D8A1484601F06CFD4846BDE805
:104E4000FC87014600220878302806DB08783928DC
:104E500003DC08783038024415E00878412806DB86
:104E60000878462803DC0878373802440BE00878D5
:104E7000612806DB0878662803DC08785738024486
:104E800001E0002070471201491C0878302806DB39
:104E90000878392803DC08783038024415E00878AF
:104EA000412806DB0878462803DC087837380244B6
:104EB0000BE00878612806DB0878662803DC0878B0
:104EC0005738024401E00020DCE71201491C087851
:104ED000302806DB0878392803DC087830380244AB
:104EE00015E00878412806DB0878462803DC0878B6
:104EF000373802440BE00878612806DB087866281A
:104F000003DC08785738024401E00020BAE71201B8
:104F1000491C0878302806DB0878392803DC087833
:104F20003038024415E00878412806DB0878462826
:104F300003DC0878373802440BE00878612806DB88
:104F40000878662803DC08785738024401E000201E
:104F500098E7104696E72DE9F05F8346884608F10A
:104F60000104002798F80000222805D08B48C0F8DB
:104F700000800020BDE8F09F04E014F8011B5C29CC
:104F800000D1641C2078222804D0207810B1781C2D
:104F9000071EF2D1781C7549096888478146B9F126
:104FA000000F01D10020E5E708F101044D469EE025
:104FB00020785C2804D014F8010B05F8010B96E06A
:104FC000641C2078722818D006DC622809D0662874
:104FD0000BD06E287ED10CE0742812D07528F9D140
:104FE00013E0082005F8010B7FE00C2005F8010B09
:104FF0007BE00A2005F8010B77E00D2005F8010B96
:1050000073E0092005F8010B6FE0601CFFF719FF42
:105010000646241DB6F55C4F02D3B6F5604F00D3AB
:1050200006B962E0B6F5584F1CD3B6F55C4F19D2FD
:1050300060785C2802D1A078752800D055E0E01C8B
:10504000FFF7FFFE8246A41DBAF55C4F02D3BAF506
:10505000604F00D349E0C6F30901504661F39F2039
:1050600000F580360427802E01D2012708E0B6F52E
:10507000006F01D2022703E0B6F5803F00D203277C
:105080003D44012F20D0022F15D0032F0AD0042F2A
:1050900024D106F0BF0040F08001681E0546017073
:1050A000B60900BF06F0BF0040F08001681E05464B
:1050B0000170B60900BF06F0BF0040F08001681E15
:1050C00005460170B60900BF3548C05D3043C1B226
:1050D000681E00E005E00546017000BF00BF3D44CA
:1050E00003E0207805F8010B00BF00BF641C2078A6
:1050F000222803D0207800287FF45AAF002028709F
:105100002078222800D1641CCBF810900420CBF822
:105110000C0020462EE72DE9F05F804689460027E7
:10512000BB46454611E02878002802DD2878202873
:1051300005DB2878222802D028785C2801D10120BC
:1051400000E0002040EA0B0B6D1C28780028EAD113
:10515000BBF1000F3ED1A5EB0807B9F1000F21D03C
:10516000F91C4846FFF763FD064620E030000020AA
:10517000256400000000B03C44F3C2E4E4E9634C61
:10518000252E3066000000008DEDB5A0F7C6B03EBC
:1051900065CDCD4125650000256600002C0000206E
:1051A0004AAB0008F81CFD4909688847064616B94D
:1051B0000020BDE8F09F3446222004F8010B414650
:1051C000204601F092FD2220E0550021781C215458
:1051D0003046EEE7B8F1000F16D1B9F1000F05D057
:1051E00003214846FFF723FD064604E00320EB4970
:1051F0000968884706460EB90020DAE7E8A130467C
:1052000001F073FD3046D4E745460BE05146E5A07A
:1052100001F03DFD08B17F1C03E0BAF1200F00DA78
:105220007F1D6D1C95F800A0BAF1000F02D0781C0C
:10523000071EEBD1B9F1000F05D0F91C4846FFF766
:10524000F6FC064604E0F81CD4490968884706467F
:105250000EB90020ADE734464546222004F8010B84
:1052600047E028781F280ADD2878222807D02878E8
:105270005C2804D015F8010B04F8010B39E05C2020
:1052800004F8010B15F8011B8A460C2919D006DC1D
:10529000082912D0092920D00A2922D115E00D2988
:1052A00017D0222905D05C291BD15C2004F8010B02
:1052B0001EE0222004F8010B1AE0622004F8010B22
:1052C00016E0662004F8010B12E06E2004F8010BD2
:1052D0000EE0722004F8010B0AE0742004F8010BC0
:1052E00006E05246B1A1204601F014FB641D00BF48
:1052F00000BF28780028B4D1222004F8010B002038
:1053000004F8010B304654E770B504460D462946B3
:105310002069FFF700FF70BD00E0401C20B101785C
:1053200011B101782029F8DD70472DE9F0470646D4
:105330000C4620787B2804D09E4804600020BDE8FD
:10534000F0870620F060601CFFF7E6FF0446207837
:105350007D2801D1601CF2E7FFF74DFB0546B060E8
:10536000B06808B90020EAE72046FFF7D5FF80467D
:1053700041462846FFF7EFFD0746FFF7CDFF0446FD
:105380000CB90020DBE7286928620020286120781A
:105390003A2803D0874804600020D0E7601CFFF75C
:1053A000BBFF80464146284600F099F80746FFF7C4
:1053B000B3FF04460CB90020C1E731E0FFF71BFB47
:1053C000071E00D1BBE72F607D603D46601CFFF7E4
:1053D000A3FF814649462846FFF7BDFD8046FFF7FB
:1053E0009BFF04460CB90020A9E728692862002029
:1053F000286120783A2803D06E48046000209EE798
:10540000601CFFF789FF81464946284600F067F88F
:105410008046FFF781FF04460CB900208FE700BFEC
:1054200020782C28CAD020787D2801D1601C86E7FE
:1054300060480460002082E72DE9F04705460C46ED
:1054400020785B2804D05B4804600020BDE8F0872A
:105450000520E860601CFFF75FFF044620785D28A8
:1054600001D1601CF2E7FFF7C6FA0646A860A868FB
:1054700008B90020EAE72046FFF74EFF8046414684
:10548000304600F02CF80746FFF746FF04460CB9FB
:105490000020DBE717E0FFF7AEFA071E00D1D5E7E3
:1054A00037607E603E46601CFFF736FF8146494606
:1054B000304600F014F88046FFF72EFF04460CB982
:1054C0000020C3E700BF20782C28E4D020785D2896
:1054D00001D1601CBAE7374804600020B6E770B518
:1054E00005460C460CB9002070BD042232A12046AE
:1054F00001F03EFC18B90220E860201DF4E7052207
:105500002FA1204601F034FC18B90020E860601D8E
:10551000EAE704222CA1204601F02AFC20B9012050
:10552000E8606861201DDFE72078222804D1214649
:105530002846FFF710FDD7E720782D2805D02078E2
:10554000302807DB2078392804DC21462846FFF77D
:1055500088FAC9E720785B2804D121462846FFF75E
:105560006BFFC1E720787B2804D121462846FFF74E
:10557000DCFEB9E70F4804600020B5E72DE9F047ED
:1055800080460D4616460024FFF735FA07460020F0
:1055900008490860E7B9BDE8F08700003000002046
:1055A00022220000225C080C0A0D09007525303407
:1055B000780000002C0000206E756C6C000000006C
:1055C00066616C7365000000747275650000000010
:1055D0004046FFF7A1FE814649463846FFF77FFF68
:1055E00004462CB93846FFF713FA0020BDE8F087CF
:1055F00066B12046FFF790FE0446207830B1384669
:10560000FFF706FAFE4804600020EFE705B12C60C2
:105610003846EBE710B50446002211462046FFF756
:10562000ADFF10BD2DE9FF4F89B0884616461F46D5
:1056300000200890079006904FF0070A002509986F
:10564000D0F80890002002900190009004E00298A9
:10565000401C0290D9F80090B9F1000FF7D10298E0
:10566000002835D157B116B108F1040000E003203D
:1056700001463846FFF7DBFA069009E016B108F15B
:10568000040100E003210846DE49096888470690C6
:10569000069818B900200DB0BDE8F08F069C7B205D
:1056A00004F8010B66B10A2004F8010B002503E0A1
:1056B000092004F8010B6D1CA8F10100A842F7DCD9
:1056C0007D2004F8010B002004F8010B0698E2E7A6
:1056D000002F77D0BD680EB1022000E00120824685
:1056E0000AF101013846FFF7A2FA04460CB900207E
:1056F000D1E77B2004F8010B16B10A2004F8010B56
:1057000000202070B8685044B8600998D0F808901C
:1057100008F1010868E0B6B141463846FFF787FA5C
:1057200004460CB90020B6E70020039005E00920EC
:1057300004F8010B0398401C039003984045F6DBE6
:10574000B8684044B8603946D9F82000FFF7E3FC58
:105750003846FFF7A0FAB8600EB1022000E0012041
:10576000824651463846FFF762FA04460CB90020DB
:1057700091E73A2004F8010B16B1092004F8010B57
:10578000B8685044B8603B4632464146484600F04F
:1057900078FA3846FFF77FFAB8600EB1012000E0D2
:1057A0000020D9F8001009B1012100E0002100EB30
:1057B000010A0AF101013846FFF739FA044614B923
:1057C000002068E734E0D9F8000010B12C2004F87C
:1057D000010B16B10A2004F8010B00202070B868F4
:1057E0005044B860D9F80090B9F1000F93D116B1C8
:1057F00008F1010000E0022001463846FFF717FAE1
:1058000004460CB9002046E74EB1002503E009200C
:1058100004F8010B6D1CA8F10100A842F7DC7D2003
:1058200004F8010B0020207038682844069005E138
:10583000029988007349096888470890089808B950
:10584000002028E7029988006E4909688847079078
:10585000079828B96C4908980968884700201AE712
:1058600002988100089801F073FB02988100079864
:1058700001F06EFB0998D0F8089008F1010806B114
:10588000C2442EE00021D9F82000FFF744FC049028
:10589000079941F82500002332464146484600F06A
:1058A000F0F929466D1C0590089A42F821000498E9
:1058B00098B1059888B1059801F03BFA83460498A1
:1058C00001F037FA0BEB0001891C16B108F1020058
:1058D00000E000200844824401E001200190D9F852
:1058E0000090B9F1000FCDD1019820B9504645493B
:1058F000096888470690069808B901200190019828
:1059000018B3002514E0079850F8250028B107992E
:1059100051F825003C4909688847089850F8250047
:1059200028B1089951F825003749096888476D1C46
:1059300002988542E7DB344907980968884732496D
:105940000898096888470020A5E67B210698017021
:105950000698441C16B10A2004F8010B00202070A0
:10596000002548E05EB10020039005E0092004F81E
:10597000010B0398401C039003984045F6DB079900
:1059800051F8250001F0D5F90090079850F825103E
:105990002046009A01F043FA009804443A2004F8A3
:1059A000010B16B1092004F8010B089850F82510D6
:1059B000204601F09AF9089951F8250001F0B9F94B
:1059C00004440298401EA84202D02C2004F8010B87
:1059D00016B10A2004F8010B00202070079951F835
:1059E0002500094909688847089951F825000649A2
:1059F000096888476D1C02988542B3DB024905E0BF
:105A00002C00002030000020340000200798096896
:105A10008847F7490898096888474EB1002503E090
:105A2000092004F8010B6D1CA8F10100A842F7DC65
:105A30007D2004F8010B002004F8010B06982AE6EB
:105A40002DE9FF4F85B092461E464FF0000B052012
:105A500003900598D0F80880D946002500200290D0
:105A6000019003E009F10109D8F80080B8F1000FB6
:105A7000F8D1B9F1000F16D12EB103213046FFF74E
:105A8000D6F8834604E00320DA490968884783464C
:105A9000BBF1000F03D0D8A1584601F026F95846B3
:105AA00009B0BDE8F08F002E57D0B568012130460F
:105AB000FFF7BDF804460CB90020F1E75B20207029
:105AC000B068401CB0600598D0F808802EE03346DE
:105AD00052460699491C404600F0D3F83046FFF77D
